{
  "_format": "hh-sol-artifact-1",
  "contractName": "GovernorBravoDelegate",
  "sourceName": "contracts/Governance/GovernorBravoDelegate.sol",
  "abi": [
    {
      "anonymous": false,
      "inputs": [
        {
          "indexed": false,
          "internalType": "address",
          "name": "oldAdmin",
          "type": "address"
        },
        {
          "indexed": false,
          "internalType": "address",
          "name": "newAdmin",
          "type": "address"
        }
      ],
      "name": "NewAdmin",
      "type": "event"
    },
    {
      "anonymous": false,
      "inputs": [
        {
          "indexed": false,
          "internalType": "address",
          "name": "oldImplementation",
          "type": "address"
        },
        {
          "indexed": false,
          "internalType": "address",
          "name": "newImplementation",
          "type": "address"
        }
      ],
      "name": "NewImplementation",
      "type": "event"
    },
    {
      "anonymous": false,
      "inputs": [
        {
          "indexed": false,
          "internalType": "address",
          "name": "oldPendingAdmin",
          "type": "address"
        },
        {
          "indexed": false,
          "internalType": "address",
          "name": "newPendingAdmin",
          "type": "address"
        }
      ],
      "name": "NewPendingAdmin",
      "type": "event"
    },
    {
      "anonymous": false,
      "inputs": [
        {
          "indexed": false,
          "internalType": "uint256",
          "name": "id",
          "type": "uint256"
        }
      ],
      "name": "ProposalCanceled",
      "type": "event"
    },
    {
      "anonymous": false,
      "inputs": [
        {
          "indexed": false,
          "internalType": "uint256",
          "name": "id",
          "type": "uint256"
        },
        {
          "indexed": false,
          "internalType": "address",
          "name": "proposer",
          "type": "address"
        },
        {
          "indexed": false,
          "internalType": "address[]",
          "name": "targets",
          "type": "address[]"
        },
        {
          "indexed": false,
          "internalType": "uint256[]",
          "name": "values",
          "type": "uint256[]"
        },
        {
          "indexed": false,
          "internalType": "string[]",
          "name": "signatures",
          "type": "string[]"
        },
        {
          "indexed": false,
          "internalType": "bytes[]",
          "name": "calldatas",
          "type": "bytes[]"
        },
        {
          "indexed": false,
          "internalType": "uint256",
          "name": "startBlock",
          "type": "uint256"
        },
        {
          "indexed": false,
          "internalType": "uint256",
          "name": "endBlock",
          "type": "uint256"
        },
        {
          "indexed": false,
          "internalType": "string",
          "name": "description",
          "type": "string"
        }
      ],
      "name": "ProposalCreated",
      "type": "event"
    },
    {
      "anonymous": false,
      "inputs": [
        {
          "indexed": false,
          "internalType": "uint256",
          "name": "id",
          "type": "uint256"
        }
      ],
      "name": "ProposalExecuted",
      "type": "event"
    },
    {
      "anonymous": false,
      "inputs": [
        {
          "indexed": false,
          "internalType": "uint256",
          "name": "id",
          "type": "uint256"
        },
        {
          "indexed": false,
          "internalType": "uint256",
          "name": "eta",
          "type": "uint256"
        }
      ],
      "name": "ProposalQueued",
      "type": "event"
    },
    {
      "anonymous": false,
      "inputs": [
        {
          "indexed": false,
          "internalType": "uint256",
          "name": "oldProposalThreshold",
          "type": "uint256"
        },
        {
          "indexed": false,
          "internalType": "uint256",
          "name": "newProposalThreshold",
          "type": "uint256"
        }
      ],
      "name": "ProposalThresholdSet",
      "type": "event"
    },
    {
      "anonymous": false,
      "inputs": [
        {
          "indexed": true,
          "internalType": "address",
          "name": "voter",
          "type": "address"
        },
        {
          "indexed": false,
          "internalType": "uint256",
          "name": "proposalId",
          "type": "uint256"
        },
        {
          "indexed": false,
          "internalType": "uint8",
          "name": "support",
          "type": "uint8"
        },
        {
          "indexed": false,
          "internalType": "uint256",
          "name": "votes",
          "type": "uint256"
        },
        {
          "indexed": false,
          "internalType": "string",
          "name": "reason",
          "type": "string"
        }
      ],
      "name": "VoteCast",
      "type": "event"
    },
    {
      "anonymous": false,
      "inputs": [
        {
          "indexed": false,
          "internalType": "uint256",
          "name": "oldVotingDelay",
          "type": "uint256"
        },
        {
          "indexed": false,
          "internalType": "uint256",
          "name": "newVotingDelay",
          "type": "uint256"
        }
      ],
      "name": "VotingDelaySet",
      "type": "event"
    },
    {
      "anonymous": false,
      "inputs": [
        {
          "indexed": false,
          "internalType": "uint256",
          "name": "oldVotingPeriod",
          "type": "uint256"
        },
        {
          "indexed": false,
          "internalType": "uint256",
          "name": "newVotingPeriod",
          "type": "uint256"
        }
      ],
      "name": "VotingPeriodSet",
      "type": "event"
    },
    {
      "anonymous": false,
      "inputs": [
        {
          "indexed": false,
          "internalType": "address",
          "name": "account",
          "type": "address"
        },
        {
          "indexed": false,
          "internalType": "uint256",
          "name": "expiration",
          "type": "uint256"
        }
      ],
      "name": "WhitelistAccountExpirationSet",
      "type": "event"
    },
    {
      "anonymous": false,
      "inputs": [
        {
          "indexed": false,
          "internalType": "address",
          "name": "oldGuardian",
          "type": "address"
        },
        {
          "indexed": false,
          "internalType": "address",
          "name": "newGuardian",
          "type": "address"
        }
      ],
      "name": "WhitelistGuardianSet",
      "type": "event"
    },
    {
      "constant": true,
      "inputs": [],
      "name": "BALLOT_TYPEHASH",
      "outputs": [
        {
          "internalType": "bytes32",
          "name": "",
          "type": "bytes32"
        }
      ],
      "payable": false,
      "stateMutability": "view",
      "type": "function"
    },
    {
      "constant": true,
      "inputs": [],
      "name": "DOMAIN_TYPEHASH",
      "outputs": [
        {
          "internalType": "bytes32",
          "name": "",
          "type": "bytes32"
        }
      ],
      "payable": false,
      "stateMutability": "view",
      "type": "function"
    },
    {
      "constant": true,
      "inputs": [],
      "name": "MAX_PROPOSAL_THRESHOLD",
      "outputs": [
        {
          "internalType": "uint256",
          "name": "",
          "type": "uint256"
        }
      ],
      "payable": false,
      "stateMutability": "view",
      "type": "function"
    },
    {
      "constant": true,
      "inputs": [],
      "name": "MAX_VOTING_DELAY",
      "outputs": [
        {
          "internalType": "uint256",
          "name": "",
          "type": "uint256"
        }
      ],
      "payable": false,
      "stateMutability": "view",
      "type": "function"
    },
    {
      "constant": true,
      "inputs": [],
      "name": "MAX_VOTING_PERIOD",
      "outputs": [
        {
          "internalType": "uint256",
          "name": "",
          "type": "uint256"
        }
      ],
      "payable": false,
      "stateMutability": "view",
      "type": "function"
    },
    {
      "constant": true,
      "inputs": [],
      "name": "MIN_PROPOSAL_THRESHOLD",
      "outputs": [
        {
          "internalType": "uint256",
          "name": "",
          "type": "uint256"
        }
      ],
      "payable": false,
      "stateMutability": "view",
      "type": "function"
    },
    {
      "constant": true,
      "inputs": [],
      "name": "MIN_VOTING_DELAY",
      "outputs": [
        {
          "internalType": "uint256",
          "name": "",
          "type": "uint256"
        }
      ],
      "payable": false,
      "stateMutability": "view",
      "type": "function"
    },
    {
      "constant": true,
      "inputs": [],
      "name": "MIN_VOTING_PERIOD",
      "outputs": [
        {
          "internalType": "uint256",
          "name": "",
          "type": "uint256"
        }
      ],
      "payable": false,
      "stateMutability": "view",
      "type": "function"
    },
    {
      "constant": false,
      "inputs": [],
      "name": "_acceptAdmin",
      "outputs": [],
      "payable": false,
      "stateMutability": "nonpayable",
      "type": "function"
    },
    {
      "constant": false,
      "inputs": [
        {
          "internalType": "address",
          "name": "governorAlpha",
          "type": "address"
        }
      ],
      "name": "_initiate",
      "outputs": [],
      "payable": false,
      "stateMutability": "nonpayable",
      "type": "function"
    },
    {
      "constant": false,
      "inputs": [
        {
          "internalType": "address",
          "name": "newPendingAdmin",
          "type": "address"
        }
      ],
      "name": "_setPendingAdmin",
      "outputs": [],
      "payable": false,
      "stateMutability": "nonpayable",
      "type": "function"
    },
    {
      "constant": false,
      "inputs": [
        {
          "internalType": "uint256",
          "name": "newProposalThreshold",
          "type": "uint256"
        }
      ],
      "name": "_setProposalThreshold",
      "outputs": [],
      "payable": false,
      "stateMutability": "nonpayable",
      "type": "function"
    },
    {
      "constant": false,
      "inputs": [
        {
          "internalType": "uint256",
          "name": "newVotingDelay",
          "type": "uint256"
        }
      ],
      "name": "_setVotingDelay",
      "outputs": [],
      "payable": false,
      "stateMutability": "nonpayable",
      "type": "function"
    },
    {
      "constant": false,
      "inputs": [
        {
          "internalType": "uint256",
          "name": "newVotingPeriod",
          "type": "uint256"
        }
      ],
      "name": "_setVotingPeriod",
      "outputs": [],
      "payable": false,
      "stateMutability": "nonpayable",
      "type": "function"
    },
    {
      "constant": false,
      "inputs": [
        {
          "internalType": "address",
          "name": "account",
          "type": "address"
        },
        {
          "internalType": "uint256",
          "name": "expiration",
          "type": "uint256"
        }
      ],
      "name": "_setWhitelistAccountExpiration",
      "outputs": [],
      "payable": false,
      "stateMutability": "nonpayable",
      "type": "function"
    },
    {
      "constant": false,
      "inputs": [
        {
          "internalType": "address",
          "name": "account",
          "type": "address"
        }
      ],
      "name": "_setWhitelistGuardian",
      "outputs": [],
      "payable": false,
      "stateMutability": "nonpayable",
      "type": "function"
    },
    {
      "constant": true,
      "inputs": [],
      "name": "admin",
      "outputs": [
        {
          "internalType": "address",
          "name": "",
          "type": "address"
        }
      ],
      "payable": false,
      "stateMutability": "view",
      "type": "function"
    },
    {
      "constant": false,
      "inputs": [
        {
          "internalType": "uint256",
          "name": "proposalId",
          "type": "uint256"
        }
      ],
      "name": "cancel",
      "outputs": [],
      "payable": false,
      "stateMutability": "nonpayable",
      "type": "function"
    },
    {
      "constant": false,
      "inputs": [
        {
          "internalType": "uint256",
          "name": "proposalId",
          "type": "uint256"
        },
        {
          "internalType": "uint8",
          "name": "support",
          "type": "uint8"
        }
      ],
      "name": "castVote",
      "outputs": [],
      "payable": false,
      "stateMutability": "nonpayable",
      "type": "function"
    },
    {
      "constant": false,
      "inputs": [
        {
          "internalType": "uint256",
          "name": "proposalId",
          "type": "uint256"
        },
        {
          "internalType": "uint8",
          "name": "support",
          "type": "uint8"
        },
        {
          "internalType": "uint8",
          "name": "v",
          "type": "uint8"
        },
        {
          "internalType": "bytes32",
          "name": "r",
          "type": "bytes32"
        },
        {
          "internalType": "bytes32",
          "name": "s",
          "type": "bytes32"
        }
      ],
      "name": "castVoteBySig",
      "outputs": [],
      "payable": false,
      "stateMutability": "nonpayable",
      "type": "function"
    },
    {
      "constant": false,
      "inputs": [
        {
          "internalType": "uint256",
          "name": "proposalId",
          "type": "uint256"
        },
        {
          "internalType": "uint8",
          "name": "support",
          "type": "uint8"
        },
        {
          "internalType": "string",
          "name": "reason",
          "type": "string"
        }
      ],
      "name": "castVoteWithReason",
      "outputs": [],
      "payable": false,
      "stateMutability": "nonpayable",
      "type": "function"
    },
    {
      "constant": true,
      "inputs": [],
      "name": "comp",
      "outputs": [
        {
          "internalType": "contract CompInterface",
          "name": "",
          "type": "address"
        }
      ],
      "payable": false,
      "stateMutability": "view",
      "type": "function"
    },
    {
      "constant": false,
      "inputs": [
        {
          "internalType": "uint256",
          "name": "proposalId",
          "type": "uint256"
        }
      ],
      "name": "execute",
      "outputs": [],
      "payable": true,
      "stateMutability": "payable",
      "type": "function"
    },
    {
      "constant": true,
      "inputs": [
        {
          "internalType": "uint256",
          "name": "proposalId",
          "type": "uint256"
        }
      ],
      "name": "getActions",
      "outputs": [
        {
          "internalType": "address[]",
          "name": "targets",
          "type": "address[]"
        },
        {
          "internalType": "uint256[]",
          "name": "values",
          "type": "uint256[]"
        },
        {
          "internalType": "string[]",
          "name": "signatures",
          "type": "string[]"
        },
        {
          "internalType": "bytes[]",
          "name": "calldatas",
          "type": "bytes[]"
        }
      ],
      "payable": false,
      "stateMutability": "view",
      "type": "function"
    },
    {
      "constant": true,
      "inputs": [
        {
          "internalType": "uint256",
          "name": "proposalId",
          "type": "uint256"
        },
        {
          "internalType": "address",
          "name": "voter",
          "type": "address"
        }
      ],
      "name": "getReceipt",
      "outputs": [
        {
          "components": [
            {
              "internalType": "bool",
              "name": "hasVoted",
              "type": "bool"
            },
            {
              "internalType": "uint8",
              "name": "support",
              "type": "uint8"
            },
            {
              "internalType": "uint96",
              "name": "votes",
              "type": "uint96"
            }
          ],
          "internalType": "struct GovernorBravoDelegateStorageV1.Receipt",
          "name": "",
          "type": "tuple"
        }
      ],
      "payable": false,
      "stateMutability": "view",
      "type": "function"
    },
    {
      "constant": true,
      "inputs": [],
      "name": "implementation",
      "outputs": [
        {
          "internalType": "address",
          "name": "",
          "type": "address"
        }
      ],
      "payable": false,
      "stateMutability": "view",
      "type": "function"
    },
    {
      "constant": true,
      "inputs": [],
      "name": "initialProposalId",
      "outputs": [
        {
          "internalType": "uint256",
          "name": "",
          "type": "uint256"
        }
      ],
      "payable": false,
      "stateMutability": "view",
      "type": "function"
    },
    {
      "constant": false,
      "inputs": [
        {
          "internalType": "address",
          "name": "timelock_",
          "type": "address"
        },
        {
          "internalType": "address",
          "name": "comp_",
          "type": "address"
        },
        {
          "internalType": "uint256",
          "name": "votingPeriod_",
          "type": "uint256"
        },
        {
          "internalType": "uint256",
          "name": "votingDelay_",
          "type": "uint256"
        },
        {
          "internalType": "uint256",
          "name": "proposalThreshold_",
          "type": "uint256"
        }
      ],
      "name": "initialize",
      "outputs": [],
      "payable": false,
      "stateMutability": "nonpayable",
      "type": "function"
    },
    {
      "constant": true,
      "inputs": [
        {
          "internalType": "address",
          "name": "account",
          "type": "address"
        }
      ],
      "name": "isWhitelisted",
      "outputs": [
        {
          "internalType": "bool",
          "name": "",
          "type": "bool"
        }
      ],
      "payable": false,
      "stateMutability": "view",
      "type": "function"
    },
    {
      "constant": true,
      "inputs": [
        {
          "internalType": "address",
          "name": "",
          "type": "address"
        }
      ],
      "name": "latestProposalIds",
      "outputs": [
        {
          "internalType": "uint256",
          "name": "",
          "type": "uint256"
        }
      ],
      "payable": false,
      "stateMutability": "view",
      "type": "function"
    },
    {
      "constant": true,
      "inputs": [],
      "name": "name",
      "outputs": [
        {
          "internalType": "string",
          "name": "",
          "type": "string"
        }
      ],
      "payable": false,
      "stateMutability": "view",
      "type": "function"
    },
    {
      "constant": true,
      "inputs": [],
      "name": "pendingAdmin",
      "outputs": [
        {
          "internalType": "address",
          "name": "",
          "type": "address"
        }
      ],
      "payable": false,
      "stateMutability": "view",
      "type": "function"
    },
    {
      "constant": true,
      "inputs": [],
      "name": "proposalCount",
      "outputs": [
        {
          "internalType": "uint256",
          "name": "",
          "type": "uint256"
        }
      ],
      "payable": false,
      "stateMutability": "view",
      "type": "function"
    },
    {
      "constant": true,
      "inputs": [],
      "name": "proposalMaxOperations",
      "outputs": [
        {
          "internalType": "uint256",
          "name": "",
          "type": "uint256"
        }
      ],
      "payable": false,
      "stateMutability": "view",
      "type": "function"
    },
    {
      "constant": true,
      "inputs": [],
      "name": "proposalThreshold",
      "outputs": [
        {
          "internalType": "uint256",
          "name": "",
          "type": "uint256"
        }
      ],
      "payable": false,
      "stateMutability": "view",
      "type": "function"
    },
    {
      "constant": true,
      "inputs": [
        {
          "internalType": "uint256",
          "name": "",
          "type": "uint256"
        }
      ],
      "name": "proposals",
      "outputs": [
        {
          "internalType": "uint256",
          "name": "id",
          "type": "uint256"
        },
        {
          "internalType": "address",
          "name": "proposer",
          "type": "address"
        },
        {
          "internalType": "uint256",
          "name": "eta",
          "type": "uint256"
        },
        {
          "internalType": "uint256",
          "name": "startBlock",
          "type": "uint256"
        },
        {
          "internalType": "uint256",
          "name": "endBlock",
          "type": "uint256"
        },
        {
          "internalType": "uint256",
          "name": "forVotes",
          "type": "uint256"
        },
        {
          "internalType": "uint256",
          "name": "againstVotes",
          "type": "uint256"
        },
        {
          "internalType": "uint256",
          "name": "abstainVotes",
          "type": "uint256"
        },
        {
          "internalType": "bool",
          "name": "canceled",
          "type": "bool"
        },
        {
          "internalType": "bool",
          "name": "executed",
          "type": "bool"
        }
      ],
      "payable": false,
      "stateMutability": "view",
      "type": "function"
    },
    {
      "constant": false,
      "inputs": [
        {
          "internalType": "address[]",
          "name": "targets",
          "type": "address[]"
        },
        {
          "internalType": "uint256[]",
          "name": "values",
          "type": "uint256[]"
        },
        {
          "internalType": "string[]",
          "name": "signatures",
          "type": "string[]"
        },
        {
          "internalType": "bytes[]",
          "name": "calldatas",
          "type": "bytes[]"
        },
        {
          "internalType": "string",
          "name": "description",
          "type": "string"
        }
      ],
      "name": "propose",
      "outputs": [
        {
          "internalType": "uint256",
          "name": "",
          "type": "uint256"
        }
      ],
      "payable": false,
      "stateMutability": "nonpayable",
      "type": "function"
    },
    {
      "constant": false,
      "inputs": [
        {
          "internalType": "uint256",
          "name": "proposalId",
          "type": "uint256"
        }
      ],
      "name": "queue",
      "outputs": [],
      "payable": false,
      "stateMutability": "nonpayable",
      "type": "function"
    },
    {
      "constant": true,
      "inputs": [],
      "name": "quorumVotes",
      "outputs": [
        {
          "internalType": "uint256",
          "name": "",
          "type": "uint256"
        }
      ],
      "payable": false,
      "stateMutability": "view",
      "type": "function"
    },
    {
      "constant": true,
      "inputs": [
        {
          "internalType": "uint256",
          "name": "proposalId",
          "type": "uint256"
        }
      ],
      "name": "state",
      "outputs": [
        {
          "internalType": "enum GovernorBravoDelegateStorageV1.ProposalState",
          "name": "",
          "type": "uint8"
        }
      ],
      "payable": false,
      "stateMutability": "view",
      "type": "function"
    },
    {
      "constant": true,
      "inputs": [],
      "name": "timelock",
      "outputs": [
        {
          "internalType": "contract TimelockInterface",
          "name": "",
          "type": "address"
        }
      ],
      "payable": false,
      "stateMutability": "view",
      "type": "function"
    },
    {
      "constant": true,
      "inputs": [],
      "name": "votingDelay",
      "outputs": [
        {
          "internalType": "uint256",
          "name": "",
          "type": "uint256"
        }
      ],
      "payable": false,
      "stateMutability": "view",
      "type": "function"
    },
    {
      "constant": true,
      "inputs": [],
      "name": "votingPeriod",
      "outputs": [
        {
          "internalType": "uint256",
          "name": "",
          "type": "uint256"
        }
      ],
      "payable": false,
      "stateMutability": "view",
      "type": "function"
    },
    {
      "constant": true,
      "inputs": [
        {
          "internalType": "address",
          "name": "",
          "type": "address"
        }
      ],
      "name": "whitelistAccountExpirations",
      "outputs": [
        {
          "internalType": "uint256",
          "name": "",
          "type": "uint256"
        }
      ],
      "payable": false,
      "stateMutability": "view",
      "type": "function"
    },
    {
      "constant": true,
      "inputs": [],
      "name": "whitelistGuardian",
      "outputs": [
        {
          "internalType": "address",
          "name": "",
          "type": "address"
        }
      ],
      "payable": false,
      "stateMutability": "view",
      "type": "function"
    }
  ],
  "bytecode": "0x608060405234801561001057600080fd5b5061494a806100206000396000f3fe6080604052600436106102725760003560e01c80635c60da1b1161014f578063d33219b4116100c1578063e48083fe1161007a578063e48083fe14610712578063e9c714f214610727578063f851a4401461073c578063f9d28b8014610751578063fc4eee4214610771578063fe0d94c11461078657610272565b8063d33219b414610666578063da35c6641461067b578063da95691a14610690578063ddf0b009146106b0578063deaaa7cc146106d0578063e23a9a52146106e557610272565b8063a64e024a11610113578063a64e024a146105d2578063b1126263146105e7578063b58131b0146105fc578063b71d1a0c14610611578063c5a8425d14610631578063d13f90b41461064657610272565b80635c60da1b14610553578063791f5d23146105685780637b3c71d31461057d5780637bdbe4d01461059d57806399533365146105b257610272565b806325fd935a116101e85780633af32abf116101ac5780633af32abf146104795780633bccf4fd146104a65780633e4f49e6146104c657806340e58ee5146104f35780634d6733d214610513578063567813881461053357610272565b806325fd935a146103dd57806326782247146103f2578063328dd9821461041457806338bd0dda146104445780633932abb11461046457610272565b806317977c611161023a57806317977c611461033e57806317ba1b8b1461035e5780631dfb1b5a1461037e57806320606b701461039e578063215809ca146103b357806324bc1a64146103c857610272565b8063013cf08b1461027757806302a251a3146102b657806306fdde03146102d85780630ea2d98c146102fa578063109d0af81461031c575b600080fd5b34801561028357600080fd5b50610297610292366004612ec8565b610799565b6040516102ad9a99989796959493929190614661565b60405180910390f35b3480156102c257600080fd5b506102cb6107fc565b6040516102ad919061426e565b3480156102e457600080fd5b506102ed610802565b6040516102ad919061432a565b34801561030657600080fd5b5061031a610315366004612ec8565b610835565b005b34801561032857600080fd5b506103316108df565b6040516102ad919061430e565b34801561034a57600080fd5b506102cb610359366004612ca3565b6108ee565b34801561036a57600080fd5b5061031a610379366004612ec8565b610900565b34801561038a57600080fd5b5061031a610399366004612ec8565b6109a3565b3480156103aa57600080fd5b506102cb610a36565b3480156103bf57600080fd5b506102cb610a4d565b3480156103d457600080fd5b506102cb610a53565b3480156103e957600080fd5b506102cb610a61565b3480156103fe57600080fd5b50610407610a6f565b6040516102ad9190614126565b34801561042057600080fd5b5061043461042f366004612ec8565b610a7e565b6040516102ad9493929190614213565b34801561045057600080fd5b506102cb61045f366004612ca3565b610d0d565b34801561047057600080fd5b506102cb610d1f565b34801561048557600080fd5b50610499610494366004612ca3565b610d25565b6040516102ad9190614260565b3480156104b257600080fd5b5061031a6104c1366004612fae565b610d46565b3480156104d257600080fd5b506104e66104e1366004612ec8565b610f21565b6040516102ad919061431c565b3480156104ff57600080fd5b5061031a61050e366004612ec8565b6110a6565b34801561051f57600080fd5b5061031a61052e366004612d3e565b6113ed565b34801561053f57600080fd5b5061031a61054e366004612f16565b611479565b34801561055f57600080fd5b506104076114c3565b34801561057457600080fd5b506102cb6114d2565b34801561058957600080fd5b5061031a610598366004612f46565b6114df565b3480156105a957600080fd5b506102cb61152f565b3480156105be57600080fd5b5061031a6105cd366004612ca3565b611534565b3480156105de57600080fd5b506102cb6115b3565b3480156105f357600080fd5b506102cb6115ba565b34801561060857600080fd5b506102cb6115c0565b34801561061d57600080fd5b5061031a61062c366004612ca3565b6115c6565b34801561063d57600080fd5b50610407611643565b34801561065257600080fd5b5061031a610661366004612cc9565b611652565b34801561067257600080fd5b506103316117ce565b34801561068757600080fd5b506102cb6117dd565b34801561069c57600080fd5b506102cb6106ab366004612d78565b6117e3565b3480156106bc57600080fd5b5061031a6106cb366004612ec8565b611c3a565b3480156106dc57600080fd5b506102cb611eb6565b3480156106f157600080fd5b50610705610700366004612ee6565b611ec2565b6040516102ad91906145ab565b34801561071e57600080fd5b506102cb611f2f565b34801561073357600080fd5b5061031a611f34565b34801561074857600080fd5b50610407612012565b34801561075d57600080fd5b5061031a61076c366004612ca3565b612021565b34801561077d57600080fd5b506102cb612147565b61031a610794366004612ec8565b61214d565b600a60208190526000918252604090912080546001820154600283015460078401546008850154600986015496860154600b870154600c9097015495976001600160a01b0390951696939592949193919290919060ff808216916101009004168a565b60045481565b60405180604001604052806017815260200176436f6d706f756e6420476f7665726e6f7220427261766f60481b81525081565b6000546001600160a01b031633146108685760405162461bcd60e51b815260040161085f9061437b565b60405180910390fd5b611680811015801561087d575062013b008111155b6108995760405162461bcd60e51b815260040161085f906143bb565b60048054908290556040517f7e3f7f0708a84de9203036abaa450dccc85ad5ff52f78c170f3edb55cf5e8828906108d390839085906146e7565b60405180910390a15050565b6009546001600160a01b031681565b600b6020526000908152604090205481565b6000546001600160a01b0316331461092a5760405162461bcd60e51b815260040161085f9061455b565b683635c9adc5dea00000811015801561094d575069152d02c7e14af68000008111155b6109695760405162461bcd60e51b815260040161085f9061446b565b60058054908290556040517fccb45da8d5717e6c4544694297c4ba5cf151d455c9bb0ed4fc7a38411bc05461906108d390839085906146e7565b6000546001600160a01b031633146109cd5760405162461bcd60e51b815260040161085f9061439b565b600181101580156109e05750619d808111155b6109fc5760405162461bcd60e51b815260040161085f906143eb565b60038054908290556040517fc565b045403dc03c2eea82b81a0465edad9e2e7fc4d97e11421c209da93d7a93906108d390839085906146e7565b604051610a429061411b565b604051809103902081565b61168081565b6954b40b1f852bda00000081565b69152d02c7e14af680000081565b6001546001600160a01b031681565b6060806060806000600a600087815260200190815260200160002090508060030181600401826005018360060183805480602002602001604051908101604052809291908181526020018280548015610b0057602002820191906000526020600020905b81546001600160a01b03168152600190910190602001808311610ae2575b5050505050935082805480602002602001604051908101604052809291908181526020018280548015610b5257602002820191906000526020600020905b815481526020019060010190808311610b3e575b5050505050925081805480602002602001604051908101604052809291908181526020016000905b82821015610c255760008481526020908190208301805460408051601f6002600019610100600187161502019094169390930492830185900485028101850190915281815292830182828015610c115780601f10610be657610100808354040283529160200191610c11565b820191906000526020600020905b815481529060010190602001808311610bf457829003601f168201915b505050505081526020019060010190610b7a565b50505050915080805480602002602001604051908101604052809291908181526020016000905b82821015610cf75760008481526020908190208301805460408051601f6002600019610100600187161502019094169390930492830185900485028101850190915281815292830182828015610ce35780601f10610cb857610100808354040283529160200191610ce3565b820191906000526020600020905b815481529060010190602001808311610cc657829003601f168201915b505050505081526020019060010190610c4c565b5050505090509450945094509450509193509193565b600c6020526000908152604090205481565b60035481565b6001600160a01b0381166000908152600c602052604090205442105b919050565b6000604051610d549061411b565b604080519182900382208282019091526017825276436f6d706f756e6420476f7665726e6f7220427261766f60481b6020909201919091527f3d9e905142ff365fb68ce863f26a44f5583cf7ec11bcde450555f50b7e1b5614610db5612306565b30604051602001610dc9949392919061427c565b6040516020818303038152906040528051906020012090506000604051610def906140df565b604051908190038120610e0891899089906020016142b1565b60405160208183030381529060405280519060200120905060008282604051602001610e359291906140ea565b604051602081830303815290604052805190602001209050600060018288888860405160008152602001604052604051610e7294939291906142d9565b6020604051602081039080840390855afa158015610e94573d6000803e3d6000fd5b5050604051601f1901519150506001600160a01b038116610ec75760405162461bcd60e51b815260040161085f9061441b565b806001600160a01b03167fb8e138887d0aa13bab447e82de9d5c1777041ecd21ca36ba824ff1e6c07ddda48a8a610eff858e8e61230b565b604051610f0e9392919061473b565b60405180910390a2505050505050505050565b60008160075410158015610f36575060065482115b610f525760405162461bcd60e51b815260040161085f9061456b565b6000828152600a60205260409020600c81015460ff1615610f77576002915050610d41565b80600701544311610f8c576000915050610d41565b80600801544311610fa1576001915050610d41565b80600a01548160090154111580610fc557506954b40b1f852bda0000008160090154105b15610fd4576003915050610d41565b6002810154610fe7576004915050610d41565b600c810154610100900460ff1615611003576007915050610d41565b6002810154600854604080516360d143f160e11b8152905161108c93926001600160a01b03169163c1a287e2916004808301926020929190829003018186803b15801561104f57600080fd5b505afa158015611063573d6000803e3d6000fd5b505050506040513d601f19601f820116820180604052506110879190810190612e75565b6124fc565b421061109c576006915050610d41565b6005915050610d41565b60076110b182610f21565b60078111156110bc57fe5b14156110da5760405162461bcd60e51b815260040161085f9061454b565b6000818152600a6020526040902060018101546001600160a01b031633146112b1576001810154611113906001600160a01b0316610d25565b156111f2576005546009546001838101546001600160a01b039283169263782d6fe192911690611144904390612521565b6040518363ffffffff1660e01b815260040161116192919061416a565b60206040518083038186803b15801561117957600080fd5b505afa15801561118d573d6000803e3d6000fd5b505050506040513d601f19601f820116820180604052506111b19190810190612ff4565b6001600160601b03161080156111d15750600d546001600160a01b031633145b6111ed5760405162461bcd60e51b815260040161085f9061459b565b6112b1565b6005546009546001838101546001600160a01b039283169263782d6fe19291169061121e904390612521565b6040518363ffffffff1660e01b815260040161123b92919061416a565b60206040518083038186803b15801561125357600080fd5b505afa158015611267573d6000803e3d6000fd5b505050506040513d601f19601f8201168201806040525061128b9190810190612ff4565b6001600160601b0316106112b15760405162461bcd60e51b815260040161085f906144db565b600c8101805460ff1916600117905560005b60038201548110156113bd576008546003830180546001600160a01b039092169163591fcdfe9190849081106112f557fe5b6000918252602090912001546004850180546001600160a01b03909216918590811061131d57fe5b906000526020600020015485600501858154811061133757fe5b9060005260206000200186600601868154811061135057fe5b9060005260206000200187600201546040518663ffffffff1660e01b815260040161137f9594939291906141d2565b600060405180830381600087803b15801561139957600080fd5b505af11580156113ad573d6000803e3d6000fd5b5050600190920191506112c39050565b507f789cf55be980739dad1d0699b93b58e806b51c9d96619bfa8fe0a28abaa7b30c826040516108d3919061426e565b6000546001600160a01b03163314806114105750600d546001600160a01b031633145b61142c5760405162461bcd60e51b815260040161085f9061453b565b6001600160a01b0382166000908152600c602052604090819020829055517f4e7b7545bc5744d0e30425959f4687475774b6c7edad77d24cb51c7d967d4515906108d3908490849061416a565b337fb8e138887d0aa13bab447e82de9d5c1777041ecd21ca36ba824ff1e6c07ddda483836114a884838361230b565b6040516114b79392919061473b565b60405180910390a25050565b6002546001600160a01b031681565b683635c9adc5dea0000081565b337fb8e138887d0aa13bab447e82de9d5c1777041ecd21ca36ba824ff1e6c07ddda4858561150e84838361230b565b86866040516115219594939291906146f5565b60405180910390a250505050565b600a81565b6000546001600160a01b0316331461155e5760405162461bcd60e51b815260040161085f9061443b565b600d80546001600160a01b038381166001600160a01b031983161792839055604051918116927f80a07e73e552148844a9c216d9724212d609cfa54e9c1a2e97203bdd2c4ad341926108d3928592169061414f565b62013b0081565b619d8081565b60055481565b6000546001600160a01b031633146115f05760405162461bcd60e51b815260040161085f9061435b565b600180546001600160a01b038381166001600160a01b03198316179092556040519116907fca4f2f25d0898edd99413412fb94012f9e54ec8142f9b093e7720646a95b16a9906108d3908390859061414f565b600d546001600160a01b031681565b6008546001600160a01b03161561167b5760405162461bcd60e51b815260040161085f9061434b565b6000546001600160a01b031633146116a55760405162461bcd60e51b815260040161085f9061445b565b6001600160a01b0385166116cb5760405162461bcd60e51b815260040161085f9061438b565b6001600160a01b0384166116f15760405162461bcd60e51b815260040161085f906144cb565b6116808310158015611706575062013b008311155b6117225760405162461bcd60e51b815260040161085f9061457b565b600182101580156117355750619d808211155b6117515760405162461bcd60e51b815260040161085f9061442b565b683635c9adc5dea000008110158015611774575069152d02c7e14af68000008111155b6117905760405162461bcd60e51b815260040161085f906143fb565b600880546001600160a01b039687166001600160a01b0319918216179091556009805495909616941693909317909355600455600391909155600555565b6008546001600160a01b031681565b60075481565b6000600654600014156118085760405162461bcd60e51b815260040161085f906143ab565b6005546009546001600160a01b031663782d6fe133611828436001612521565b6040518363ffffffff1660e01b8152600401611845929190614134565b60206040518083038186803b15801561185d57600080fd5b505afa158015611871573d6000803e3d6000fd5b505050506040513d601f19601f820116820180604052506118959190810190612ff4565b6001600160601b031611806118ae57506118ae33610d25565b6118ca5760405162461bcd60e51b815260040161085f9061452b565b845186511480156118dc575083518651145b80156118e9575082518651145b6119055760405162461bcd60e51b815260040161085f9061444b565b85516119235760405162461bcd60e51b815260040161085f906144ab565b600a865111156119455760405162461bcd60e51b815260040161085f906144eb565b336000908152600b602052604090205480156119c257600061196682610f21565b9050600181600781111561197657fe5b14156119945760405162461bcd60e51b815260040161085f9061450b565b60008160078111156119a257fe5b14156119c05760405162461bcd60e51b815260040161085f906144fb565b505b60006119d0436003546124fc565b905060006119e0826004546124fc565b60078054600101905590506119f36126a8565b604051806101c001604052806007548152602001336001600160a01b03168152602001600081526020018b81526020018a815260200189815260200188815260200184815260200183815260200160008152602001600081526020016000815260200160001515815260200160001515815250905080600a6000836000015181526020019081526020016000206000820151816000015560208201518160010160006101000a8154816001600160a01b0302191690836001600160a01b03160217905550604082015181600201556060820151816003019080519060200190611add929190612724565b5060808201518051611af9916004840191602090910190612789565b5060a08201518051611b159160058401916020909101906127d0565b5060c08201518051611b31916006840191602090910190612829565b5060e082015181600701556101008201518160080155610120820151816009015561014082015181600a015561016082015181600b015561018082015181600c0160006101000a81548160ff0219169083151502179055506101a082015181600c0160016101000a81548160ff0219169083151502179055509050508060000151600b600083602001516001600160a01b03166001600160a01b03168152602001908152602001600020819055507f7d84a6263ae0d98d3329bd7b46bb4e8d6f98cd35a7adb45c274c8b7fd5ebd5e08160000151338c8c8c8c89898e604051611c22999897969594939291906145b9565b60405180910390a15193505050505b95945050505050565b6004611c4582610f21565b6007811115611c5057fe5b14611c6d5760405162461bcd60e51b815260040161085f9061447b565b6000818152600a602090815260408083206008548251630d48571f60e31b81529251919493611cc79342936001600160a01b0390931692636a42b8f892600480840193919291829003018186803b15801561104f57600080fd5b905060005b6003830154811015611e6f57611e67836003018281548110611cea57fe5b6000918252602090912001546004850180546001600160a01b039092169184908110611d1257fe5b9060005260206000200154856005018481548110611d2c57fe5b600091825260209182902001805460408051601f6002600019610100600187161502019094169390930492830185900485028101850190915281815292830182828015611dba5780601f10611d8f57610100808354040283529160200191611dba565b820191906000526020600020905b815481529060010190602001808311611d9d57829003601f168201915b5050505050866006018581548110611dce57fe5b600091825260209182902001805460408051601f6002600019610100600187161502019094169390930492830185900485028101850190915281815292830182828015611e5c5780601f10611e3157610100808354040283529160200191611e5c565b820191906000526020600020905b815481529060010190602001808311611e3f57829003601f168201915b505050505086612549565b600101611ccc565b50600282018190556040517f9a2e42fd6722813d69113e7d0079d3d940171428df7373df9c7f7617cfda289290611ea990859084906146e7565b60405180910390a1505050565b604051610a42906140df565b611eca612882565b506000828152600a602090815260408083206001600160a01b0385168452600d018252918290208251606081018452905460ff8082161515835261010082041692820192909252620100009091046001600160601b0316918101919091525b92915050565b600181565b6001546001600160a01b031633148015611f4d57503315155b611f695760405162461bcd60e51b815260040161085f906144bb565b60008054600180546001600160a01b038082166001600160a01b03198086168217968790559092169092556040519282169390927ff9ffabca9c8276e99321725bcb43fb076a6c66a54b7f21c4e8146d8519b417dc92611fcd92869291169061414f565b60405180910390a16001546040517fca4f2f25d0898edd99413412fb94012f9e54ec8142f9b093e7720646a95b16a9916108d39184916001600160a01b03169061414f565b6000546001600160a01b031681565b6000546001600160a01b0316331461204b5760405162461bcd60e51b815260040161085f9061451b565b6006541561206b5760405162461bcd60e51b815260040161085f9061449b565b806001600160a01b031663da35c6646040518163ffffffff1660e01b8152600401602060405180830381600087803b1580156120a657600080fd5b505af11580156120ba573d6000803e3d6000fd5b505050506040513d601f19601f820116820180604052506120de9190810190612e75565b600781905560065560085460408051630e18b68160e01b815290516001600160a01b0390921691630e18b6819160048082019260009290919082900301818387803b15801561212c57600080fd5b505af1158015612140573d6000803e3d6000fd5b5050505050565b60065481565b600561215882610f21565b600781111561216357fe5b146121805760405162461bcd60e51b815260040161085f9061440b565b6000818152600a60205260408120600c8101805461ff001916610100179055905b60038201548110156122d6576008546004830180546001600160a01b0390921691630825f38f9190849081106121d357fe5b90600052602060002001548460030184815481106121ed57fe5b6000918252602090912001546004860180546001600160a01b03909216918690811061221557fe5b906000526020600020015486600501868154811061222f57fe5b9060005260206000200187600601878154811061224857fe5b9060005260206000200188600201546040518763ffffffff1660e01b81526004016122779594939291906141d2565b6000604051808303818588803b15801561229057600080fd5b505af11580156122a4573d6000803e3d6000fd5b50505050506040513d6000823e601f3d908101601f191682016040526122cd9190810190612e93565b506001016121a1565b507f712ae1383f79ac853f8d882153778e0260ef8f03b504e2866e0593e04d2b291f826040516108d3919061426e565b465b90565b6000600161231884610f21565b600781111561232357fe5b146123405760405162461bcd60e51b815260040161085f906143cb565b60028260ff1611156123645760405162461bcd60e51b815260040161085f9061433b565b6000838152600a602090815260408083206001600160a01b0388168452600d8101909252909120805460ff16156123ad5760405162461bcd60e51b815260040161085f906143db565b600954600783015460405163782d6fe160e01b81526000926001600160a01b03169163782d6fe1916123e3918b9160040161416a565b60206040518083038186803b1580156123fb57600080fd5b505afa15801561240f573d6000803e3d6000fd5b505050506040513d601f19601f820116820180604052506124339190810190612ff4565b905060ff851661245e5761245483600a0154826001600160601b03166124fc565b600a8401556124b4565b8460ff166001141561248b576124818360090154826001600160601b03166124fc565b60098401556124b4565b8460ff16600214156124b4576124ae83600b0154826001600160601b03166124fc565b600b8401555b8154600160ff199091161761ff00191661010060ff871602176dffffffffffffffffffffffff00001916620100006001600160601b03831602179091559150505b9392505050565b6000828201838110156124f55760405162461bcd60e51b815260040161085f9061448b565b6000828211156125435760405162461bcd60e51b815260040161085f9061458b565b50900390565b6008546040516001600160a01b039091169063f2b06537906125779088908890889088908890602001614178565b604051602081830303815290604052805190602001206040518263ffffffff1660e01b81526004016125a9919061426e565b60206040518083038186803b1580156125c157600080fd5b505afa1580156125d5573d6000803e3d6000fd5b505050506040513d601f19601f820116820180604052506125f99190810190612e57565b156126165760405162461bcd60e51b815260040161085f9061436b565b600854604051633a66f90160e01b81526001600160a01b0390911690633a66f9019061264e9088908890889088908890600401614178565b602060405180830381600087803b15801561266857600080fd5b505af115801561267c573d6000803e3d6000fd5b505050506040513d601f19601f820116820180604052506126a09190810190612e75565b505050505050565b604051806101c001604052806000815260200160006001600160a01b03168152602001600081526020016060815260200160608152602001606081526020016060815260200160008152602001600081526020016000815260200160008152602001600081526020016000151581526020016000151581525090565b828054828255906000526020600020908101928215612779579160200282015b8281111561277957825182546001600160a01b0319166001600160a01b03909116178255602090920191600190910190612744565b506127859291506128a2565b5090565b8280548282559060005260206000209081019282156127c4579160200282015b828111156127c45782518255916020019190600101906127a9565b506127859291506128c6565b82805482825590600052602060002090810192821561281d579160200282015b8281111561281d578251805161280d9184916020909101906128e0565b50916020019190600101906127f0565b5061278592915061294d565b828054828255906000526020600020908101928215612876579160200282015b8281111561287657825180516128669184916020909101906128e0565b5091602001919060010190612849565b50612785929150612970565b604080516060810182526000808252602082018190529181019190915290565b61230891905b808211156127855780546001600160a01b03191681556001016128a8565b61230891905b8082111561278557600081556001016128cc565b828054600181600116156101000203166002900490600052602060002090601f016020900481019282601f1061292157805160ff19168380011785556127c4565b828001600101855582156127c457918201828111156127c45782518255916020019190600101906127a9565b61230891905b808211156127855760006129678282612993565b50600101612953565b61230891905b8082111561278557600061298a8282612993565b50600101612976565b50805460018160011615610100020316600290046000825580601f106129b957506129d7565b601f0160209004906000526020600020908101906129d791906128c6565b50565b8035611f29816148af565b600082601f8301126129f657600080fd5b8135612a09612a048261479b565b614774565b91508181835260208401935060208101905083856020840282011115612a2e57600080fd5b60005b83811015612a5a5781612a4488826129da565b8452506020928301929190910190600101612a31565b5050505092915050565b600082601f830112612a7557600080fd5b8135612a83612a048261479b565b81815260209384019390925082018360005b83811015612a5a5781358601612aab8882612baf565b8452506020928301929190910190600101612a95565b600082601f830112612ad257600080fd5b8135612ae0612a048261479b565b81815260209384019390925082018360005b83811015612a5a5781358601612b088882612baf565b8452506020928301929190910190600101612af2565b600082601f830112612b2f57600080fd5b8135612b3d612a048261479b565b91508181835260208401935060208101905083856020840282011115612b6257600080fd5b60005b83811015612a5a5781612b788882612b99565b8452506020928301929190910190600101612b65565b8051611f29816148c3565b8035611f29816148cc565b8051611f29816148cc565b600082601f830112612bc057600080fd5b8135612bce612a04826147bc565b91508082526020830160208301858383011115612bea57600080fd5b612bf5838284614863565b50505092915050565b600082601f830112612c0f57600080fd5b8151612c1d612a04826147bc565b91508082526020830160208301858383011115612c3957600080fd5b612bf583828461486f565b60008083601f840112612c5657600080fd5b50813567ffffffffffffffff811115612c6e57600080fd5b602083019150836001820283011115612c8657600080fd5b9250929050565b8035611f29816148d5565b8051611f29816148de565b600060208284031215612cb557600080fd5b6000612cc184846129da565b949350505050565b600080600080600060a08688031215612ce157600080fd5b6000612ced88886129da565b9550506020612cfe888289016129da565b9450506040612d0f88828901612b99565b9350506060612d2088828901612b99565b9250506080612d3188828901612b99565b9150509295509295909350565b60008060408385031215612d5157600080fd5b6000612d5d85856129da565b9250506020612d6e85828601612b99565b9150509250929050565b600080600080600060a08688031215612d9057600080fd5b853567ffffffffffffffff811115612da757600080fd5b612db3888289016129e5565b955050602086013567ffffffffffffffff811115612dd057600080fd5b612ddc88828901612b1e565b945050604086013567ffffffffffffffff811115612df957600080fd5b612e0588828901612ac1565b935050606086013567ffffffffffffffff811115612e2257600080fd5b612e2e88828901612a64565b925050608086013567ffffffffffffffff811115612e4b57600080fd5b612d3188828901612baf565b600060208284031215612e6957600080fd5b6000612cc18484612b8e565b600060208284031215612e8757600080fd5b6000612cc18484612ba4565b600060208284031215612ea557600080fd5b815167ffffffffffffffff811115612ebc57600080fd5b612cc184828501612bfe565b600060208284031215612eda57600080fd5b6000612cc18484612b99565b60008060408385031215612ef957600080fd5b6000612f058585612b99565b9250506020612d6e858286016129da565b60008060408385031215612f2957600080fd5b6000612f358585612b99565b9250506020612d6e85828601612c8d565b60008060008060608587031215612f5c57600080fd5b6000612f688787612b99565b9450506020612f7987828801612c8d565b935050604085013567ffffffffffffffff811115612f9657600080fd5b612fa287828801612c44565b95989497509550505050565b600080600080600060a08688031215612fc657600080fd5b6000612fd28888612b99565b9550506020612fe388828901612c8d565b9450506040612d0f88828901612c8d565b60006020828403121561300657600080fd5b6000612cc18484612c98565b600061301e838361304d565b505060200190565b60006124f583836131ef565b600061301e83836131d5565b6130478161483b565b82525050565b61304781614803565b6000613061826147f6565b61306b81856147fa565b9350613076836147e4565b8060005b838110156130a457815161308e8882613012565b9750613099836147e4565b92505060010161307a565b509495945050505050565b60006130ba826147f6565b6130c481856147fa565b9350836020820285016130d6856147e4565b8060005b8581101561311057848403895281516130f38582613026565b94506130fe836147e4565b60209a909a01999250506001016130da565b5091979650505050505050565b6000613128826147f6565b61313281856147fa565b935083602082028501613144856147e4565b8060005b8581101561311057848403895281516131618582613026565b945061316c836147e4565b60209a909a0199925050600101613148565b6000613189826147f6565b61319381856147fa565b935061319e836147e4565b8060005b838110156130a45781516131b68882613032565b97506131c1836147e4565b9250506001016131a2565b6130478161480e565b61304781612308565b6130476131ea82612308565b612308565b60006131fa826147f6565b61320481856147fa565b935061321481856020860161486f565b61321d8161489b565b9093019392505050565b600081546001811660008114613244576001811461326a576132a9565b607f600283041661325581876147fa565b60ff19841681529550506020850192506132a9565b6002820461327881876147fa565b9550613283856147ea565b60005b828110156132a257815488820152600190910190602001613286565b8701945050505b505092915050565b61304781614842565b6130478161484d565b60006132cf83856147fa565b93506132dc838584614863565b61321d8361489b565b60006132f26032836147fa565b7f476f7665726e6f72427261766f3a3a63617374566f7465496e7465726e616c3a81527120696e76616c696420766f7465207479706560701b602082015260400192915050565b6000613346602883610d41565b7f42616c6c6f742875696e743235362070726f706f73616c49642c75696e743820815267737570706f72742960c01b602082015260280192915050565b60006133906033836147fa565b7f476f7665726e6f72427261766f3a3a696e697469616c697a653a2063616e206f8152726e6c7920696e697469616c697a65206f6e636560681b602082015260400192915050565b60006133e5602a836147fa565b7f476f7665726e6f72427261766f3a5f73657450656e64696e6741646d696e3a2081526961646d696e206f6e6c7960b01b602082015260400192915050565b60006134316055836147fa565b7f476f7665726e6f72427261766f3a3a71756575654f72526576657274496e746581527f726e616c3a206964656e746963616c2070726f706f73616c20616374696f6e20602082015274616c7265616479207175657565642061742065746160581b604082015260600192915050565b60006134ae602b836147fa565b7f476f7665726e6f72427261766f3a3a5f736574566f74696e67506572696f643a81526a2061646d696e206f6e6c7960a81b602082015260400192915050565b60006134fb6033836147fa565b6000805160206148e883398151915281527269642074696d656c6f636b206164647265737360681b602082015260400192915050565b600061353e602a836147fa565b7f476f7665726e6f72427261766f3a3a5f736574566f74696e6744656c61793a2081526961646d696e206f6e6c7960b01b602082015260400192915050565b600061358a6031836147fa565b7f476f7665726e6f72427261766f3a3a70726f706f73653a20476f7665726e6f7281527020427261766f206e6f742061637469766560781b602082015260400192915050565b60006135dd600283610d41565b61190160f01b815260020192915050565b60006135fb6036836147fa565b7f476f7665726e6f72427261766f3a3a5f736574566f74696e67506572696f643a815275081a5b9d985b1a59081d9bdd1a5b99c81c195c9a5bd960521b602082015260400192915050565b60006136536031836147fa565b7f476f7665726e6f72427261766f3a3a63617374566f7465496e7465726e616c3a815270081d9bdd1a5b99c81a5cc818db1bdcd959607a1b602082015260400192915050565b60006136a66034836147fa565b7f476f7665726e6f72427261766f3a3a63617374566f7465496e7465726e616c3a815273081d9bdd195c88185b1c9958591e481d9bdd195960621b602082015260400192915050565b60006136fc6034836147fa565b7f476f7665726e6f72427261766f3a3a5f736574566f74696e6744656c61793a20815273696e76616c696420766f74696e672064656c617960601b602082015260400192915050565b60006137526035836147fa565b6000805160206148e88339815191528152741a59081c1c9bdc1bdcd85b081d1a1c995cda1bdb19605a1b602082015260400192915050565b60006137976045836147fa565b7f476f7665726e6f72427261766f3a3a657865637574653a2070726f706f73616c81527f2063616e206f6e6c7920626520657865637574656420696620697420697320716020820152641d595d595960da1b604082015260600192915050565b6000613804602f836147fa565b7f476f7665726e6f72427261766f3a3a63617374566f746542795369673a20696e81526e76616c6964207369676e617475726560881b602082015260400192915050565b6000613855602f836147fa565b6000805160206148e883398151915281526e696420766f74696e672064656c617960881b602082015260400192915050565b60006138946030836147fa565b7f476f7665726e6f72427261766f3a3a5f73657457686974656c6973744775617281526f6469616e3a2061646d696e206f6e6c7960801b602082015260400192915050565b60006138e66044836147fa565b7f476f7665726e6f72427261766f3a3a70726f706f73653a2070726f706f73616c81527f2066756e6374696f6e20696e666f726d6174696f6e206172697479206d69736d6020820152630c2e8c6d60e31b604082015260600192915050565b60006139526025836147fa565b7f476f7665726e6f72427261766f3a3a696e697469616c697a653a2061646d696e815264206f6e6c7960d81b602082015260400192915050565b60006139996040836147fa565b7f476f7665726e6f72427261766f3a3a5f73657450726f706f73616c546872657381527f686f6c643a20696e76616c69642070726f706f73616c207468726573686f6c64602082015260400192915050565b60006139f86044836147fa565b7f476f7665726e6f72427261766f3a3a71756575653a2070726f706f73616c206381527f616e206f6e6c79206265207175657565642069662069742069732073756363656020820152631959195960e21b604082015260600192915050565b6000613a646011836147fa565b706164646974696f6e206f766572666c6f7760781b815260200192915050565b6000613a91604383610d41565b7f454950373132446f6d61696e28737472696e67206e616d652c75696e7432353681527f20636861696e49642c6164647265737320766572696679696e67436f6e74726160208201526263742960e81b604082015260430192915050565b6000613afc6030836147fa565b7f476f7665726e6f72427261766f3a3a5f696e6974696174653a2063616e206f6e81526f6c7920696e697469617465206f6e636560801b602082015260400192915050565b6000613b4e602c836147fa565b7f476f7665726e6f72427261766f3a3a70726f706f73653a206d7573742070726f81526b7669646520616374696f6e7360a01b602082015260400192915050565b6000613b9c602e836147fa565b7f476f7665726e6f72427261766f3a5f61636365707441646d696e3a2070656e6481526d696e672061646d696e206f6e6c7960901b602082015260400192915050565b6000613bec602f836147fa565b6000805160206148e883398151915281526e696420636f6d70206164647265737360881b602082015260400192915050565b6000613c2b602f836147fa565b7f476f7665726e6f72427261766f3a3a63616e63656c3a2070726f706f7365722081526e18589bdd99481d1a1c995cda1bdb19608a1b602082015260400192915050565b6000613c7c6028836147fa565b7f476f7665726e6f72427261766f3a3a70726f706f73653a20746f6f206d616e7981526720616374696f6e7360c01b602082015260400192915050565b6000613cc66059836147fa565b7f476f7665726e6f72427261766f3a3a70726f706f73653a206f6e65206c69766581527f2070726f706f73616c207065722070726f706f7365722c20666f756e6420616e60208201527f20616c72656164792070656e64696e672070726f706f73616c00000000000000604082015260600192915050565b6000613d4b6058836147fa565b7f476f7665726e6f72427261766f3a3a70726f706f73653a206f6e65206c69766581527f2070726f706f73616c207065722070726f706f7365722c20666f756e6420616e60208201527f20616c7265616479206163746976652070726f706f73616c0000000000000000604082015260600192915050565b6000611f296000836147fa565b6000613ddd6024836147fa565b7f476f7665726e6f72427261766f3a3a5f696e6974696174653a2061646d696e208152636f6e6c7960e01b602082015260400192915050565b6000613e23603f836147fa565b7f476f7665726e6f72427261766f3a3a70726f706f73653a2070726f706f73657281527f20766f7465732062656c6f772070726f706f73616c207468726573686f6c6400602082015260400192915050565b6000613e826039836147fa565b7f476f7665726e6f72427261766f3a3a5f73657457686974656c6973744163636f81527f756e7445787069726174696f6e3a2061646d696e206f6e6c7900000000000000602082015260400192915050565b6000613ee16036836147fa565b7f476f7665726e6f72427261766f3a3a63616e63656c3a2063616e6e6f742063618152751b98d95b08195e1958dd5d1959081c1c9bdc1bdcd85b60521b602082015260400192915050565b6000613f396030836147fa565b7f476f7665726e6f72427261766f3a3a5f73657450726f706f73616c546872657381526f686f6c643a2061646d696e206f6e6c7960801b602082015260400192915050565b6000613f8b6029836147fa565b7f476f7665726e6f72427261766f3a3a73746174653a20696e76616c69642070728152681bdc1bdcd85b081a5960ba1b602082015260400192915050565b6000613fd66030836147fa565b6000805160206148e883398151915281526f1a59081d9bdd1a5b99c81c195c9a5bd960821b602082015260400192915050565b60006140166015836147fa565b747375627472616374696f6e20756e646572666c6f7760581b815260200192915050565b6000614047602b836147fa565b7f476f7665726e6f72427261766f3a3a63616e63656c3a2077686974656c69737481526a32b210383937b837b9b2b960a91b602082015260400192915050565b8051606083019061409884826131cc565b5060208201516140ab60208501826140c4565b5060408201516140be60408501826140d6565b50505050565b61304781614829565b61304781614858565b6130478161482f565b6000611f2982613339565b60006140f5826135d0565b915061410182856131de565b60208201915061411182846131de565b5060200192915050565b6000611f2982613a84565b60208101611f29828461304d565b60408101614142828561303e565b6124f560208301846131d5565b6040810161415d828561304d565b6124f5602083018461304d565b60408101614142828561304d565b60a08101614186828861304d565b61419360208301876131d5565b81810360408301526141a581866131ef565b905081810360608301526141b981856131ef565b90506141c860808301846131d5565b9695505050505050565b60a081016141e0828861304d565b6141ed60208301876131d5565b81810360408301526141ff8186613227565b905081810360608301526141b98185613227565b608080825281016142248187613056565b90508181036020830152614238818661317e565b9050818103604083015261424c818561311d565b905081810360608301526141c881846130af565b60208101611f2982846131cc565b60208101611f2982846131d5565b6080810161428a82876131d5565b61429760208301866131d5565b6142a460408301856131d5565b611c31606083018461304d565b606081016142bf82866131d5565b6142cc60208301856131d5565b612cc160408301846140c4565b608081016142e782876131d5565b6142f460208301866140c4565b61430160408301856131d5565b611c3160608301846131d5565b60208101611f2982846132b1565b60208101611f2982846132ba565b602080825281016124f581846131ef565b60208082528101611f29816132e5565b60208082528101611f2981613383565b60208082528101611f29816133d8565b60208082528101611f2981613424565b60208082528101611f29816134a1565b60208082528101611f29816134ee565b60208082528101611f2981613531565b60208082528101611f298161357d565b60208082528101611f29816135ee565b60208082528101611f2981613646565b60208082528101611f2981613699565b60208082528101611f29816136ef565b60208082528101611f2981613745565b60208082528101611f298161378a565b60208082528101611f29816137f7565b60208082528101611f2981613848565b60208082528101611f2981613887565b60208082528101611f29816138d9565b60208082528101611f2981613945565b60208082528101611f298161398c565b60208082528101611f29816139eb565b60208082528101611f2981613a57565b60208082528101611f2981613aef565b60208082528101611f2981613b41565b60208082528101611f2981613b8f565b60208082528101611f2981613bdf565b60208082528101611f2981613c1e565b60208082528101611f2981613c6f565b60208082528101611f2981613cb9565b60208082528101611f2981613d3e565b60208082528101611f2981613dd0565b60208082528101611f2981613e16565b60208082528101611f2981613e75565b60208082528101611f2981613ed4565b60208082528101611f2981613f2c565b60208082528101611f2981613f7e565b60208082528101611f2981613fc9565b60208082528101611f2981614009565b60208082528101611f298161403a565b60608101611f298284614087565b61012081016145c8828c6131d5565b6145d5602083018b61303e565b81810360408301526145e7818a613056565b905081810360608301526145fb818961317e565b9050818103608083015261460f818861311d565b905081810360a083015261462381876130af565b905061463260c08301866131d5565b61463f60e08301856131d5565b81810361010083015261465281846131ef565b9b9a5050505050505050505050565b6101408101614670828d6131d5565b61467d602083018c61304d565b61468a604083018b6131d5565b614697606083018a6131d5565b6146a460808301896131d5565b6146b160a08301886131d5565b6146be60c08301876131d5565b6146cb60e08301866131d5565b6146d96101008301856131cc565b6146526101208301846131cc565b6040810161414282856131d5565b6080810161470382886131d5565b61471060208301876140c4565b61471d60408301866140cd565b81810360608301526147308184866132c3565b979650505050505050565b6080810161474982866131d5565b61475660208301856140c4565b61476360408301846140cd565b8181036060830152611c3181613dc3565b60405181810167ffffffffffffffff8111828210171561479357600080fd5b604052919050565b600067ffffffffffffffff8211156147b257600080fd5b5060209081020190565b600067ffffffffffffffff8211156147d357600080fd5b506020601f91909101601f19160190565b60200190565b60009081526020902090565b5190565b90815260200190565b6000611f298261481d565b151590565b80610d41816148a5565b6001600160a01b031690565b60ff1690565b6001600160601b031690565b6000611f29825b6000611f2982614803565b6000611f2982614813565b6000611f298261482f565b82818337506000910152565b60005b8381101561488a578181015183820152602001614872565b838111156140be5750506000910152565b601f01601f191690565b600881106129d757fe5b6148b881614803565b81146129d757600080fd5b6148b88161480e565b6148b881612308565b6148b881614829565b6148b88161482f56fe476f7665726e6f72427261766f3a3a696e697469616c697a653a20696e76616ca365627a7a723158204dbf9d346a25941c2a45ec2ca4cab4aeb5f362a0868553bcc078a9eb848b9d086c6578706572696d656e74616cf564736f6c63430005100040",
  "linkReferences": {},
  "deployedLinkReferences": {}
}